{
  "_format": "hh-sol-artifact-1",
  "contractName": "ModularCarvID",
  "sourceName": "contracts/ModularCarvID.sol",
  "abi": [
    {
      "inputs": [],
      "stateMutability": "nonpayable",
      "type": "constructor"
    },
    {
      "inputs": [
        {
          "internalType": "address",
          "name": "sender",
          "type": "address"
        },
        {
          "internalType": "uint256",
          "name": "tokenId",
          "type": "uint256"
        },
        {
          "internalType": "address",
          "name": "owner",
          "type": "address"
        }
      ],
      "name": "ERC721IncorrectOwner",
      "type": "error"
    },
    {
      "inputs": [
        {
          "internalType": "address",
          "name": "operator",
          "type": "address"
        },
        {
          "internalType": "uint256",
          "name": "tokenId",
          "type": "uint256"
        }
      ],
      "name": "ERC721InsufficientApproval",
      "type": "error"
    },
    {
      "inputs": [
        {
          "internalType": "address",
          "name": "approver",
          "type": "address"
        }
      ],
      "name": "ERC721InvalidApprover",
      "type": "error"
    },
    {
      "inputs": [
        {
          "internalType": "address",
          "name": "operator",
          "type": "address"
        }
      ],
      "name": "ERC721InvalidOperator",
      "type": "error"
    },
    {
      "inputs": [
        {
          "internalType": "address",
          "name": "owner",
          "type": "address"
        }
      ],
      "name": "ERC721InvalidOwner",
      "type": "error"
    },
    {
      "inputs": [
        {
          "internalType": "address",
          "name": "receiver",
          "type": "address"
        }
      ],
      "name": "ERC721InvalidReceiver",
      "type": "error"
    },
    {
      "inputs": [
        {
          "internalType": "address",
          "name": "sender",
          "type": "address"
        }
      ],
      "name": "ERC721InvalidSender",
      "type": "error"
    },
    {
      "inputs": [
        {
          "internalType": "uint256",
          "name": "tokenId",
          "type": "uint256"
        }
      ],
      "name": "ERC721NonexistentToken",
      "type": "error"
    },
    {
      "inputs": [
        {
          "internalType": "address",
          "name": "owner",
          "type": "address"
        }
      ],
      "name": "OwnableInvalidOwner",
      "type": "error"
    },
    {
      "inputs": [
        {
          "internalType": "address",
          "name": "account",
          "type": "address"
        }
      ],
      "name": "OwnableUnauthorizedAccount",
      "type": "error"
    },
    {
      "anonymous": false,
      "inputs": [
        {
          "indexed": true,
          "internalType": "address",
          "name": "owner",
          "type": "address"
        },
        {
          "indexed": true,
          "internalType": "address",
          "name": "approved",
          "type": "address"
        },
        {
          "indexed": true,
          "internalType": "uint256",
          "name": "tokenId",
          "type": "uint256"
        }
      ],
      "name": "Approval",
      "type": "event"
    },
    {
      "anonymous": false,
      "inputs": [
        {
          "indexed": true,
          "internalType": "address",
          "name": "owner",
          "type": "address"
        },
        {
          "indexed": true,
          "internalType": "address",
          "name": "operator",
          "type": "address"
        },
        {
          "indexed": false,
          "internalType": "bool",
          "name": "approved",
          "type": "bool"
        }
      ],
      "name": "ApprovalForAll",
      "type": "event"
    },
    {
      "anonymous": false,
      "inputs": [
        {
          "indexed": true,
          "internalType": "address",
          "name": "user",
          "type": "address"
        },
        {
          "indexed": true,
          "internalType": "uint256",
          "name": "tokenId",
          "type": "uint256"
        },
        {
          "indexed": false,
          "internalType": "bytes32",
          "name": "identitiesRoot",
          "type": "bytes32"
        }
      ],
      "name": "CarvIdMinted",
      "type": "event"
    },
    {
      "anonymous": false,
      "inputs": [
        {
          "indexed": true,
          "internalType": "address",
          "name": "previousOwner",
          "type": "address"
        },
        {
          "indexed": true,
          "internalType": "address",
          "name": "newOwner",
          "type": "address"
        }
      ],
      "name": "OwnershipTransferred",
      "type": "event"
    },
    {
      "anonymous": false,
      "inputs": [
        {
          "indexed": true,
          "internalType": "address",
          "name": "from",
          "type": "address"
        },
        {
          "indexed": true,
          "internalType": "address",
          "name": "to",
          "type": "address"
        },
        {
          "indexed": true,
          "internalType": "uint256",
          "name": "tokenId",
          "type": "uint256"
        }
      ],
      "name": "Transfer",
      "type": "event"
    },
    {
      "inputs": [
        {
          "internalType": "address",
          "name": "to",
          "type": "address"
        },
        {
          "internalType": "uint256",
          "name": "tokenId",
          "type": "uint256"
        }
      ],
      "name": "approve",
      "outputs": [],
      "stateMutability": "nonpayable",
      "type": "function"
    },
    {
      "inputs": [
        {
          "internalType": "address",
          "name": "owner",
          "type": "address"
        }
      ],
      "name": "balanceOf",
      "outputs": [
        {
          "internalType": "uint256",
          "name": "",
          "type": "uint256"
        }
      ],
      "stateMutability": "view",
      "type": "function"
    },
    {
      "inputs": [
        {
          "internalType": "uint256",
          "name": "tokenId",
          "type": "uint256"
        }
      ],
      "name": "getApproved",
      "outputs": [
        {
          "internalType": "address",
          "name": "",
          "type": "address"
        }
      ],
      "stateMutability": "view",
      "type": "function"
    },
    {
      "inputs": [
        {
          "internalType": "uint256",
          "name": "tokenId",
          "type": "uint256"
        }
      ],
      "name": "getIdentitiesRoot",
      "outputs": [
        {
          "internalType": "bytes32",
          "name": "",
          "type": "bytes32"
        }
      ],
      "stateMutability": "view",
      "type": "function"
    },
    {
      "inputs": [
        {
          "internalType": "address",
          "name": "owner",
          "type": "address"
        },
        {
          "internalType": "address",
          "name": "operator",
          "type": "address"
        }
      ],
      "name": "isApprovedForAll",
      "outputs": [
        {
          "internalType": "bool",
          "name": "",
          "type": "bool"
        }
      ],
      "stateMutability": "view",
      "type": "function"
    },
    {
      "inputs": [
        {
          "internalType": "bytes32",
          "name": "identitiesRoot",
          "type": "bytes32"
        }
      ],
      "name": "mintCarvId",
      "outputs": [],
      "stateMutability": "nonpayable",
      "type": "function"
    },
    {
      "inputs": [],
      "name": "name",
      "outputs": [
        {
          "internalType": "string",
          "name": "",
          "type": "string"
        }
      ],
      "stateMutability": "view",
      "type": "function"
    },
    {
      "inputs": [],
      "name": "owner",
      "outputs": [
        {
          "internalType": "address",
          "name": "",
          "type": "address"
        }
      ],
      "stateMutability": "view",
      "type": "function"
    },
    {
      "inputs": [
        {
          "internalType": "uint256",
          "name": "tokenId",
          "type": "uint256"
        }
      ],
      "name": "ownerOf",
      "outputs": [
        {
          "internalType": "address",
          "name": "",
          "type": "address"
        }
      ],
      "stateMutability": "view",
      "type": "function"
    },
    {
      "inputs": [],
      "name": "renounceOwnership",
      "outputs": [],
      "stateMutability": "nonpayable",
      "type": "function"
    },
    {
      "inputs": [
        {
          "internalType": "address",
          "name": "from",
          "type": "address"
        },
        {
          "internalType": "address",
          "name": "to",
          "type": "address"
        },
        {
          "internalType": "uint256",
          "name": "tokenId",
          "type": "uint256"
        }
      ],
      "name": "safeTransferFrom",
      "outputs": [],
      "stateMutability": "nonpayable",
      "type": "function"
    },
    {
      "inputs": [
        {
          "internalType": "address",
          "name": "from",
          "type": "address"
        },
        {
          "internalType": "address",
          "name": "to",
          "type": "address"
        },
        {
          "internalType": "uint256",
          "name": "tokenId",
          "type": "uint256"
        },
        {
          "internalType": "bytes",
          "name": "data",
          "type": "bytes"
        }
      ],
      "name": "safeTransferFrom",
      "outputs": [],
      "stateMutability": "nonpayable",
      "type": "function"
    },
    {
      "inputs": [
        {
          "internalType": "address",
          "name": "operator",
          "type": "address"
        },
        {
          "internalType": "bool",
          "name": "approved",
          "type": "bool"
        }
      ],
      "name": "setApprovalForAll",
      "outputs": [],
      "stateMutability": "nonpayable",
      "type": "function"
    },
    {
      "inputs": [
        {
          "internalType": "uint256",
          "name": "tokenId",
          "type": "uint256"
        },
        {
          "internalType": "bytes32",
          "name": "newRoot",
          "type": "bytes32"
        }
      ],
      "name": "setIdentitiesRoot",
      "outputs": [],
      "stateMutability": "nonpayable",
      "type": "function"
    },
    {
      "inputs": [
        {
          "internalType": "bytes4",
          "name": "interfaceId",
          "type": "bytes4"
        }
      ],
      "name": "supportsInterface",
      "outputs": [
        {
          "internalType": "bool",
          "name": "",
          "type": "bool"
        }
      ],
      "stateMutability": "view",
      "type": "function"
    },
    {
      "inputs": [],
      "name": "symbol",
      "outputs": [
        {
          "internalType": "string",
          "name": "",
          "type": "string"
        }
      ],
      "stateMutability": "view",
      "type": "function"
    },
    {
      "inputs": [
        {
          "internalType": "uint256",
          "name": "tokenId",
          "type": "uint256"
        }
      ],
      "name": "tokenURI",
      "outputs": [
        {
          "internalType": "string",
          "name": "",
          "type": "string"
        }
      ],
      "stateMutability": "view",
      "type": "function"
    },
    {
      "inputs": [
        {
          "internalType": "address",
          "name": "from",
          "type": "address"
        },
        {
          "internalType": "address",
          "name": "to",
          "type": "address"
        },
        {
          "internalType": "uint256",
          "name": "tokenId",
          "type": "uint256"
        }
      ],
      "name": "transferFrom",
      "outputs": [],
      "stateMutability": "nonpayable",
      "type": "function"
    },
    {
      "inputs": [
        {
          "internalType": "address",
          "name": "newOwner",
          "type": "address"
        }
      ],
      "name": "transferOwnership",
      "outputs": [],
      "stateMutability": "nonpayable",
      "type": "function"
    },
    {
      "inputs": [
        {
          "internalType": "address",
          "name": "",
          "type": "address"
        }
      ],
      "name": "walletToTokenId",
      "outputs": [
        {
          "internalType": "uint256",
          "name": "",
          "type": "uint256"
        }
      ],
      "stateMutability": "view",
      "type": "function"
    }
  ],
  "bytecode": "0x6080604052600160095534801561001557600080fd5b50336040518060400160405280600f81526020017f4d6f64756c6172204341525620494400000000000000000000000000000000008152506040518060400160405280600681526020017f434152564944000000000000000000000000000000000000000000000000000081525081600090816100929190610442565b5080600190816100a29190610442565b505050600073ffffffffffffffffffffffffffffffffffffffff168173ffffffffffffffffffffffffffffffffffffffff16036101175760006040517f1e4fbdf700000000000000000000000000000000000000000000000000000000815260040161010e9190610555565b60405180910390fd5b6101268161012c60201b60201c565b50610570565b6000600660009054906101000a900473ffffffffffffffffffffffffffffffffffffffff16905081600660006101000a81548173ffffffffffffffffffffffffffffffffffffffff021916908373ffffffffffffffffffffffffffffffffffffffff1602179055508173ffffffffffffffffffffffffffffffffffffffff168173ffffffffffffffffffffffffffffffffffffffff167f8be0079c531659141344cd1fd0a4f28419497f9722a3daafe3b4186f6b6457e060405160405180910390a35050565b600081519050919050565b7f4e487b7100000000000000000000000000000000000000000000000000000000600052604160045260246000fd5b7f4e487b7100000000000000000000000000000000000000000000000000000000600052602260045260246000fd5b6000600282049050600182168061027357607f821691505b6020821081036102865761028561022c565b5b50919050565b60008190508160005260206000209050919050565b60006020601f8301049050919050565b600082821b905092915050565b6000600883026102ee7fffffffffffffffffffffffffffffffffffffffffffffffffffffffffffffffff826102b1565b6102f886836102b1565b95508019841693508086168417925050509392505050565b6000819050919050565b6000819050919050565b600061033f61033a61033584610310565b61031a565b610310565b9050919050565b6000819050919050565b61035983610324565b61036d61036582610346565b8484546102be565b825550505050565b600090565b610382610375565b61038d818484610350565b505050565b5b818110156103b1576103a660008261037a565b600181019050610393565b5050565b601f8211156103f6576103c78161028c565b6103d0846102a1565b810160208510156103df578190505b6103f36103eb856102a1565b830182610392565b50505b505050565b600082821c905092915050565b6000610419600019846008026103fb565b1980831691505092915050565b60006104328383610408565b9150826002028217905092915050565b61044b826101f2565b67ffffffffffffffff811115610464576104636101fd565b5b61046e825461025b565b6104798282856103b5565b600060209050601f8311600181146104ac576000841561049a578287015190505b6104a48582610426565b86555061050c565b601f1984166104ba8661028c565b60005b828110156104e2578489015182556001820191506020850194506020810190506104bd565b868310156104ff57848901516104fb601f891682610408565b8355505b6001600288020188555050505b505050505050565b600073ffffffffffffffffffffffffffffffffffffffff82169050919050565b600061053f82610514565b9050919050565b61054f81610534565b82525050565b600060208201905061056a6000830184610546565b92915050565b612b738061057f6000396000f3fe608060405234801561001057600080fd5b506004361061012c5760003560e01c8063715018a6116100ad578063b88d4fde11610071578063b88d4fde14610341578063c87b56dd1461035d578063e985e9c51461038d578063f2fde38b146103bd578063ff30a118146103d95761012c565b8063715018a6146102af5780638da5cb5b146102b957806395d89b41146102d75780639c2806c7146102f5578063a22cb465146103255761012c565b806342842e0e116100f457806342842e0e146101e757806345692b82146102035780636352211e146102335780636850b87f1461026357806370a082311461027f5761012c565b806301ffc9a71461013157806306fdde0314610161578063081812fc1461017f578063095ea7b3146101af57806323b872dd146101cb575b600080fd5b61014b60048036038101906101469190611d8a565b6103f5565b6040516101589190611dd2565b60405180910390f35b6101696104d7565b6040516101769190611e7d565b60405180910390f35b61019960048036038101906101949190611ed5565b610569565b6040516101a69190611f43565b60405180910390f35b6101c960048036038101906101c49190611f8a565b610585565b005b6101e560048036038101906101e09190611fca565b61059b565b005b61020160048036038101906101fc9190611fca565b61069d565b005b61021d60048036038101906102189190611ed5565b6106bd565b60405161022a9190612036565b60405180910390f35b61024d60048036038101906102489190611ed5565b6106da565b60405161025a9190611f43565b60405180910390f35b61027d6004803603810190610278919061207d565b6106ec565b005b610299600480360381019061029491906120aa565b610842565b6040516102a691906120e6565b60405180910390f35b6102b76108fc565b005b6102c1610910565b6040516102ce9190611f43565b60405180910390f35b6102df61093a565b6040516102ec9190611e7d565b60405180910390f35b61030f600480360381019061030a91906120aa565b6109cc565b60405161031c91906120e6565b60405180910390f35b61033f600480360381019061033a919061212d565b6109e4565b005b61035b600480360381019061035691906122a2565b6109fa565b005b61037760048036038101906103729190611ed5565b610a1f565b6040516103849190611e7d565b60405180910390f35b6103a760048036038101906103a29190612325565b610afe565b6040516103b49190611dd2565b60405180910390f35b6103d760048036038101906103d291906120aa565b610b92565b005b6103f360048036038101906103ee9190612365565b610c18565b005b60007f80ac58cd000000000000000000000000000000000000000000000000000000007bffffffffffffffffffffffffffffffffffffffffffffffffffffffff1916827bffffffffffffffffffffffffffffffffffffffffffffffffffffffff191614806104c057507f5b5e139f000000000000000000000000000000000000000000000000000000007bffffffffffffffffffffffffffffffffffffffffffffffffffffffff1916827bffffffffffffffffffffffffffffffffffffffffffffffffffffffff1916145b806104d057506104cf82610caa565b5b9050919050565b6060600080546104e6906123d4565b80601f0160208091040260200160405190810160405280929190818152602001828054610512906123d4565b801561055f5780601f106105345761010080835404028352916020019161055f565b820191906000526020600020905b81548152906001019060200180831161054257829003601f168201915b5050505050905090565b600061057482610d14565b5061057e82610d9c565b9050919050565b6105978282610592610dd9565b610de1565b5050565b600073ffffffffffffffffffffffffffffffffffffffff168273ffffffffffffffffffffffffffffffffffffffff160361060d5760006040517f64a0ae920000000000000000000000000000000000000000000000000000000081526004016106049190611f43565b60405180910390fd5b6000610621838361061c610dd9565b610df3565b90508373ffffffffffffffffffffffffffffffffffffffff168173ffffffffffffffffffffffffffffffffffffffff1614610697578382826040517f64283d7b00000000000000000000000000000000000000000000000000000000815260040161068e93929190612405565b60405180910390fd5b50505050565b6106b8838383604051806020016040528060008152506109fa565b505050565b600060076000838152602001908152602001600020549050919050565b60006106e582610d14565b9050919050565b6000600860003373ffffffffffffffffffffffffffffffffffffffff1673ffffffffffffffffffffffffffffffffffffffff168152602001908152602001600020541461076e576040517f08c379a000000000000000000000000000000000000000000000000000000000815260040161076590612488565b60405180910390fd5b600060096000815480929190610783906124d7565b919050559050610793338261100d565b81600760008381526020019081526020016000208190555080600860003373ffffffffffffffffffffffffffffffffffffffff1673ffffffffffffffffffffffffffffffffffffffff16815260200190815260200160002081905550803373ffffffffffffffffffffffffffffffffffffffff167fb0b8ba1216ccc98284cdeb74c9f6cda0109a084172584a20554e1acd2efe1b3d846040516108369190612036565b60405180910390a35050565b60008073ffffffffffffffffffffffffffffffffffffffff168273ffffffffffffffffffffffffffffffffffffffff16036108b55760006040517f89c62b640000000000000000000000000000000000000000000000000000000081526004016108ac9190611f43565b60405180910390fd5b600360008373ffffffffffffffffffffffffffffffffffffffff1673ffffffffffffffffffffffffffffffffffffffff168152602001908152602001600020549050919050565b61090461102b565b61090e60006110b2565b565b6000600660009054906101000a900473ffffffffffffffffffffffffffffffffffffffff16905090565b606060018054610949906123d4565b80601f0160208091040260200160405190810160405280929190818152602001828054610975906123d4565b80156109c25780601f10610997576101008083540402835291602001916109c2565b820191906000526020600020905b8154815290600101906020018083116109a557829003601f168201915b5050505050905090565b60086020528060005260406000206000915090505481565b6109f66109ef610dd9565b8383611178565b5050565b610a0584848461059b565b610a19610a10610dd9565b858585856112e7565b50505050565b6060600073ffffffffffffffffffffffffffffffffffffffff16610a4283611498565b73ffffffffffffffffffffffffffffffffffffffff1603610a98576040517f08c379a0000000000000000000000000000000000000000000000000000000008152600401610a8f90612591565b60405180910390fd5b6000610ad4610aa6846114d5565b610aaf856114d5565b604051602001610ac09291906127db565b6040516020818303038152906040526115a3565b905080604051602001610ae7919061288d565b604051602081830303815290604052915050919050565b6000600560008473ffffffffffffffffffffffffffffffffffffffff1673ffffffffffffffffffffffffffffffffffffffff16815260200190815260200160002060008373ffffffffffffffffffffffffffffffffffffffff1673ffffffffffffffffffffffffffffffffffffffff16815260200190815260200160002060009054906101000a900460ff16905092915050565b610b9a61102b565b600073ffffffffffffffffffffffffffffffffffffffff168173ffffffffffffffffffffffffffffffffffffffff1603610c0c5760006040517f1e4fbdf7000000000000000000000000000000000000000000000000000000008152600401610c039190611f43565b60405180910390fd5b610c15816110b2565b50565b3373ffffffffffffffffffffffffffffffffffffffff16610c38836106da565b73ffffffffffffffffffffffffffffffffffffffff1614610c8e576040517f08c379a0000000000000000000000000000000000000000000000000000000008152600401610c85906128fb565b60405180910390fd5b8060076000848152602001908152602001600020819055505050565b60007f01ffc9a7000000000000000000000000000000000000000000000000000000007bffffffffffffffffffffffffffffffffffffffffffffffffffffffff1916827bffffffffffffffffffffffffffffffffffffffffffffffffffffffff1916149050919050565b600080610d2083611498565b9050600073ffffffffffffffffffffffffffffffffffffffff168173ffffffffffffffffffffffffffffffffffffffff1603610d9357826040517f7e273289000000000000000000000000000000000000000000000000000000008152600401610d8a91906120e6565b60405180910390fd5b80915050919050565b60006004600083815260200190815260200160002060009054906101000a900473ffffffffffffffffffffffffffffffffffffffff169050919050565b600033905090565b610dee83838360016115d0565b505050565b600080610dff84611498565b9050600073ffffffffffffffffffffffffffffffffffffffff168373ffffffffffffffffffffffffffffffffffffffff1614610e4157610e40818486611795565b5b600073ffffffffffffffffffffffffffffffffffffffff168173ffffffffffffffffffffffffffffffffffffffff1614610ed257610e836000856000806115d0565b6001600360008373ffffffffffffffffffffffffffffffffffffffff1673ffffffffffffffffffffffffffffffffffffffff168152602001908152602001600020600082825403925050819055505b600073ffffffffffffffffffffffffffffffffffffffff168573ffffffffffffffffffffffffffffffffffffffff1614610f55576001600360008773ffffffffffffffffffffffffffffffffffffffff1673ffffffffffffffffffffffffffffffffffffffff168152602001908152602001600020600082825401925050819055505b846002600086815260200190815260200160002060006101000a81548173ffffffffffffffffffffffffffffffffffffffff021916908373ffffffffffffffffffffffffffffffffffffffff160217905550838573ffffffffffffffffffffffffffffffffffffffff168273ffffffffffffffffffffffffffffffffffffffff167fddf252ad1be2c89b69c2b068fc378daa952ba7f163c4a11628f55a4df523b3ef60405160405180910390a4809150509392505050565b611027828260405180602001604052806000815250611859565b5050565b611033610dd9565b73ffffffffffffffffffffffffffffffffffffffff16611051610910565b73ffffffffffffffffffffffffffffffffffffffff16146110b057611074610dd9565b6040517f118cdaa70000000000000000000000000000000000000000000000000000000081526004016110a79190611f43565b60405180910390fd5b565b6000600660009054906101000a900473ffffffffffffffffffffffffffffffffffffffff16905081600660006101000a81548173ffffffffffffffffffffffffffffffffffffffff021916908373ffffffffffffffffffffffffffffffffffffffff1602179055508173ffffffffffffffffffffffffffffffffffffffff168173ffffffffffffffffffffffffffffffffffffffff167f8be0079c531659141344cd1fd0a4f28419497f9722a3daafe3b4186f6b6457e060405160405180910390a35050565b600073ffffffffffffffffffffffffffffffffffffffff168273ffffffffffffffffffffffffffffffffffffffff16036111e957816040517f5b08ba180000000000000000000000000000000000000000000000000000000081526004016111e09190611f43565b60405180910390fd5b80600560008573ffffffffffffffffffffffffffffffffffffffff1673ffffffffffffffffffffffffffffffffffffffff16815260200190815260200160002060008473ffffffffffffffffffffffffffffffffffffffff1673ffffffffffffffffffffffffffffffffffffffff16815260200190815260200160002060006101000a81548160ff0219169083151502179055508173ffffffffffffffffffffffffffffffffffffffff168373ffffffffffffffffffffffffffffffffffffffff167f17307eab39ab6107e8899845ad3d59bd9653f200f220920489ca2b5937696c31836040516112da9190611dd2565b60405180910390a3505050565b60008373ffffffffffffffffffffffffffffffffffffffff163b1115611491578273ffffffffffffffffffffffffffffffffffffffff1663150b7a02868685856040518563ffffffff1660e01b81526004016113469493929190612970565b6020604051808303816000875af192505050801561138257506040513d601f19601f8201168201806040525081019061137f91906129d1565b60015b611406573d80600081146113b2576040519150601f19603f3d011682016040523d82523d6000602084013e6113b7565b606091505b5060008151036113fe57836040517f64a0ae920000000000000000000000000000000000000000000000000000000081526004016113f59190611f43565b60405180910390fd5b805181602001fd5b63150b7a0260e01b7bffffffffffffffffffffffffffffffffffffffffffffffffffffffff1916817bffffffffffffffffffffffffffffffffffffffffffffffffffffffff19161461148f57836040517f64a0ae920000000000000000000000000000000000000000000000000000000081526004016114869190611f43565b60405180910390fd5b505b5050505050565b60006002600083815260200190815260200160002060009054906101000a900473ffffffffffffffffffffffffffffffffffffffff169050919050565b6060600060016114e48461187d565b01905060008167ffffffffffffffff81111561150357611502612177565b5b6040519080825280601f01601f1916602001820160405280156115355781602001600182028036833780820191505090505b509050600082602001820190505b600115611598578080600190039150507f3031323334353637383961626364656600000000000000000000000000000000600a86061a8153600a858161158c5761158b6129fe565b5b04945060008503611543575b819350505050919050565b60606115c982604051806060016040528060408152602001612afe6040913960016119d0565b9050919050565b80806116095750600073ffffffffffffffffffffffffffffffffffffffff168273ffffffffffffffffffffffffffffffffffffffff1614155b1561173d57600061161984610d14565b9050600073ffffffffffffffffffffffffffffffffffffffff168373ffffffffffffffffffffffffffffffffffffffff161415801561168457508273ffffffffffffffffffffffffffffffffffffffff168173ffffffffffffffffffffffffffffffffffffffff1614155b801561169757506116958184610afe565b155b156116d957826040517fa9fbf51f0000000000000000000000000000000000000000000000000000000081526004016116d09190611f43565b60405180910390fd5b811561173b57838573ffffffffffffffffffffffffffffffffffffffff168273ffffffffffffffffffffffffffffffffffffffff167f8c5be1e5ebec7d5bd14f71427d1e84f3dd0314c0f7b2291e5b200ac8c7c3b92560405160405180910390a45b505b836004600085815260200190815260200160002060006101000a81548173ffffffffffffffffffffffffffffffffffffffff021916908373ffffffffffffffffffffffffffffffffffffffff16021790555050505050565b6117a0838383611b64565b61185457600073ffffffffffffffffffffffffffffffffffffffff168373ffffffffffffffffffffffffffffffffffffffff160361181557806040517f7e27328900000000000000000000000000000000000000000000000000000000815260040161180c91906120e6565b60405180910390fd5b81816040517f177e802f00000000000000000000000000000000000000000000000000000000815260040161184b929190612a2d565b60405180910390fd5b505050565b6118638383611c25565b61187861186e610dd9565b60008585856112e7565b505050565b600080600090507a184f03e93ff9f4daa797ed6e38ed64bf6a1f01000000000000000083106118db577a184f03e93ff9f4daa797ed6e38ed64bf6a1f01000000000000000083816118d1576118d06129fe565b5b0492506040810190505b6d04ee2d6d415b85acef81000000008310611918576d04ee2d6d415b85acef8100000000838161190e5761190d6129fe565b5b0492506020810190505b662386f26fc10000831061194757662386f26fc10000838161193d5761193c6129fe565b5b0492506010810190505b6305f5e1008310611970576305f5e1008381611966576119656129fe565b5b0492506008810190505b612710831061199557612710838161198b5761198a6129fe565b5b0492506004810190505b606483106119b857606483816119ae576119ad6129fe565b5b0492506002810190505b600a83106119c7576001810190505b80915050919050565b606060008451036119f257604051806020016040528060008152509050611b5d565b600082611a24576003600286516004611a0b9190612a56565b611a159190612a98565b611a1f9190612acc565b611a4b565b600360028651611a349190612a98565b611a3e9190612acc565b6004611a4a9190612a56565b5b905060008167ffffffffffffffff811115611a6957611a68612177565b5b6040519080825280601f01601f191660200182016040528015611a9b5781602001600182028036833780820191505090505b50905060018501602082018788518901602081018051600082525b82841015611b11576003840193508351603f8160121c168701518653600186019550603f81600c1c168701518653600186019550603f8160061c168701518653600186019550603f8116870151865360018601955050611ab6565b8082528915611b515760038c510660018114611b345760028114611b4757611b4f565b603d6001870353603d6002870353611b4f565b603d60018703535b505b50505050505080925050505b9392505050565b60008073ffffffffffffffffffffffffffffffffffffffff168373ffffffffffffffffffffffffffffffffffffffff1614158015611c1c57508273ffffffffffffffffffffffffffffffffffffffff168473ffffffffffffffffffffffffffffffffffffffff161480611bdd5750611bdc8484610afe565b5b80611c1b57508273ffffffffffffffffffffffffffffffffffffffff16611c0383610d9c565b73ffffffffffffffffffffffffffffffffffffffff16145b5b90509392505050565b600073ffffffffffffffffffffffffffffffffffffffff168273ffffffffffffffffffffffffffffffffffffffff1603611c975760006040517f64a0ae92000000000000000000000000000000000000000000000000000000008152600401611c8e9190611f43565b60405180910390fd5b6000611ca583836000610df3565b9050600073ffffffffffffffffffffffffffffffffffffffff168173ffffffffffffffffffffffffffffffffffffffff1614611d195760006040517f73c6ac6e000000000000000000000000000000000000000000000000000000008152600401611d109190611f43565b60405180910390fd5b505050565b6000604051905090565b600080fd5b600080fd5b60007fffffffff0000000000000000000000000000000000000000000000000000000082169050919050565b611d6781611d32565b8114611d7257600080fd5b50565b600081359050611d8481611d5e565b92915050565b600060208284031215611da057611d9f611d28565b5b6000611dae84828501611d75565b91505092915050565b60008115159050919050565b611dcc81611db7565b82525050565b6000602082019050611de76000830184611dc3565b92915050565b600081519050919050565b600082825260208201905092915050565b60005b83811015611e27578082015181840152602081019050611e0c565b60008484015250505050565b6000601f19601f8301169050919050565b6000611e4f82611ded565b611e598185611df8565b9350611e69818560208601611e09565b611e7281611e33565b840191505092915050565b60006020820190508181036000830152611e978184611e44565b905092915050565b6000819050919050565b611eb281611e9f565b8114611ebd57600080fd5b50565b600081359050611ecf81611ea9565b92915050565b600060208284031215611eeb57611eea611d28565b5b6000611ef984828501611ec0565b91505092915050565b600073ffffffffffffffffffffffffffffffffffffffff82169050919050565b6000611f2d82611f02565b9050919050565b611f3d81611f22565b82525050565b6000602082019050611f586000830184611f34565b92915050565b611f6781611f22565b8114611f7257600080fd5b50565b600081359050611f8481611f5e565b92915050565b60008060408385031215611fa157611fa0611d28565b5b6000611faf85828601611f75565b9250506020611fc085828601611ec0565b9150509250929050565b600080600060608486031215611fe357611fe2611d28565b5b6000611ff186828701611f75565b935050602061200286828701611f75565b925050604061201386828701611ec0565b9150509250925092565b6000819050919050565b6120308161201d565b82525050565b600060208201905061204b6000830184612027565b92915050565b61205a8161201d565b811461206557600080fd5b50565b60008135905061207781612051565b92915050565b60006020828403121561209357612092611d28565b5b60006120a184828501612068565b91505092915050565b6000602082840312156120c0576120bf611d28565b5b60006120ce84828501611f75565b91505092915050565b6120e081611e9f565b82525050565b60006020820190506120fb60008301846120d7565b92915050565b61210a81611db7565b811461211557600080fd5b50565b60008135905061212781612101565b92915050565b6000806040838503121561214457612143611d28565b5b600061215285828601611f75565b925050602061216385828601612118565b9150509250929050565b600080fd5b600080fd5b7f4e487b7100000000000000000000000000000000000000000000000000000000600052604160045260246000fd5b6121af82611e33565b810181811067ffffffffffffffff821117156121ce576121cd612177565b5b80604052505050565b60006121e1611d1e565b90506121ed82826121a6565b919050565b600067ffffffffffffffff82111561220d5761220c612177565b5b61221682611e33565b9050602081019050919050565b82818337600083830152505050565b6000612245612240846121f2565b6121d7565b90508281526020810184848401111561226157612260612172565b5b61226c848285612223565b509392505050565b600082601f8301126122895761228861216d565b5b8135612299848260208601612232565b91505092915050565b600080600080608085870312156122bc576122bb611d28565b5b60006122ca87828801611f75565b94505060206122db87828801611f75565b93505060406122ec87828801611ec0565b925050606085013567ffffffffffffffff81111561230d5761230c611d2d565b5b61231987828801612274565b91505092959194509250565b6000806040838503121561233c5761233b611d28565b5b600061234a85828601611f75565b925050602061235b85828601611f75565b9150509250929050565b6000806040838503121561237c5761237b611d28565b5b600061238a85828601611ec0565b925050602061239b85828601612068565b9150509250929050565b7f4e487b7100000000000000000000000000000000000000000000000000000000600052602260045260246000fd5b600060028204905060018216806123ec57607f821691505b6020821081036123ff576123fe6123a5565b5b50919050565b600060608201905061241a6000830186611f34565b61242760208301856120d7565b6124346040830184611f34565b949350505050565b7f416c7265616479206d696e746564000000000000000000000000000000000000600082015250565b6000612472600e83611df8565b915061247d8261243c565b602082019050919050565b600060208201905081810360008301526124a181612465565b9050919050565b7f4e487b7100000000000000000000000000000000000000000000000000000000600052601160045260246000fd5b60006124e282611e9f565b91507fffffffffffffffffffffffffffffffffffffffffffffffffffffffffffffffff8203612514576125136124a8565b5b600182019050919050565b7f4552433732314d657461646174613a2055524920717565727920666f72206e6f60008201527f6e6578697374656e7420746f6b656e0000000000000000000000000000000000602082015250565b600061257b602f83611df8565b91506125868261251f565b604082019050919050565b600060208201905081810360008301526125aa8161256e565b9050919050565b600081905092915050565b7f7b226e616d65223a224341525620494420230000000000000000000000000000600082015250565b60006125f26012836125b1565b91506125fd826125bc565b601282019050919050565b600061261382611ded565b61261d81856125b1565b935061262d818560208601611e09565b80840191505092915050565b7f222c000000000000000000000000000000000000000000000000000000000000600082015250565b600061266f6002836125b1565b915061267a82612639565b600282019050919050565b7f226465736372697074696f6e223a22596f7572204d6f64756c6172204341525660008201527f204944222c000000000000000000000000000000000000000000000000000000602082015250565b60006126e16025836125b1565b91506126ec82612685565b602582019050919050565b7f22696d616765223a2268747470733a2f2f6170692e64696365626561722e636f60008201527f6d2f372e782f6964656e7469636f6e2f7376673f736565643d00000000000000602082015250565b60006127536039836125b1565b915061275e826126f7565b603982019050919050565b7f2261747472696275746573223a5b7b2274726169745f74797065223a224e657460008201527f776f726b222c2276616c7565223a22424e4220546573746e6574227d5d7d0000602082015250565b60006127c5603e836125b1565b91506127d082612769565b603e82019050919050565b60006127e6826125e5565b91506127f28285612608565b91506127fd82612662565b9150612808826126d4565b915061281382612746565b915061281f8284612608565b915061282a82612662565b9150612835826127b8565b91508190509392505050565b7f646174613a6170706c69636174696f6e2f6a736f6e3b6261736536342c000000600082015250565b6000612877601d836125b1565b915061288282612841565b601d82019050919050565b60006128988261286a565b91506128a48284612608565b915081905092915050565b7f4e6f7420746f6b656e206f776e65720000000000000000000000000000000000600082015250565b60006128e5600f83611df8565b91506128f0826128af565b602082019050919050565b60006020820190508181036000830152612914816128d8565b9050919050565b600081519050919050565b600082825260208201905092915050565b60006129428261291b565b61294c8185612926565b935061295c818560208601611e09565b61296581611e33565b840191505092915050565b60006080820190506129856000830187611f34565b6129926020830186611f34565b61299f60408301856120d7565b81810360608301526129b18184612937565b905095945050505050565b6000815190506129cb81611d5e565b92915050565b6000602082840312156129e7576129e6611d28565b5b60006129f5848285016129bc565b91505092915050565b7f4e487b7100000000000000000000000000000000000000000000000000000000600052601260045260246000fd5b6000604082019050612a426000830185611f34565b612a4f60208301846120d7565b9392505050565b6000612a6182611e9f565b9150612a6c83611e9f565b9250828202612a7a81611e9f565b91508282048414831517612a9157612a906124a8565b5b5092915050565b6000612aa382611e9f565b9150612aae83611e9f565b9250828201905080821115612ac657612ac56124a8565b5b92915050565b6000612ad782611e9f565b9150612ae283611e9f565b925082612af257612af16129fe565b5b82820490509291505056fe4142434445464748494a4b4c4d4e4f505152535455565758595a6162636465666768696a6b6c6d6e6f707172737475767778797a303132333435363738392b2fa26469706673582212200034b09c27387fb39bc3d6c0221f4ed731d39f9d23c4fe6a30a7ecfbe99ce2a664736f6c634300081c0033",
  "linkReferences": {},
  "deployedLinkReferences": {}
}