{
    "_format": "hh-sol-artifact-1",
    "contractName": "ModularCarvID",
    "sourceName": "contracts/ModularCarvID.sol",
    "abi": [
        {
            "inputs": [],
            "stateMutability": "nonpayable",
            "type": "constructor"
        },
        {
            "inputs": [
                {
                    "internalType": "address",
                    "name": "sender",
                    "type": "address"
                },
                {
                    "internalType": "uint256",
                    "name": "tokenId",
                    "type": "uint256"
                },
                {
                    "internalType": "address",
                    "name": "owner",
                    "type": "address"
                }
            ],
            "name": "ERC721IncorrectOwner",
            "type": "error"
        },
        {
            "inputs": [
                {
                    "internalType": "address",
                    "name": "operator",
                    "type": "address"
                },
                {
                    "internalType": "uint256",
                    "name": "tokenId",
                    "type": "uint256"
                }
            ],
            "name": "ERC721InsufficientApproval",
            "type": "error"
        },
        {
            "inputs": [
                {
                    "internalType": "address",
                    "name": "approver",
                    "type": "address"
                }
            ],
            "name": "ERC721InvalidApprover",
            "type": "error"
        },
        {
            "inputs": [
                {
                    "internalType": "address",
                    "name": "operator",
                    "type": "address"
                }
            ],
            "name": "ERC721InvalidOperator",
            "type": "error"
        },
        {
            "inputs": [
                {
                    "internalType": "address",
                    "name": "owner",
                    "type": "address"
                }
            ],
            "name": "ERC721InvalidOwner",
            "type": "error"
        },
        {
            "inputs": [
                {
                    "internalType": "address",
                    "name": "receiver",
                    "type": "address"
                }
            ],
            "name": "ERC721InvalidReceiver",
            "type": "error"
        },
        {
            "inputs": [
                {
                    "internalType": "address",
                    "name": "sender",
                    "type": "address"
                }
            ],
            "name": "ERC721InvalidSender",
            "type": "error"
        },
        {
            "inputs": [
                {
                    "internalType": "uint256",
                    "name": "tokenId",
                    "type": "uint256"
                }
            ],
            "name": "ERC721NonexistentToken",
            "type": "error"
        },
        {
            "inputs": [
                {
                    "internalType": "address",
                    "name": "owner",
                    "type": "address"
                }
            ],
            "name": "OwnableInvalidOwner",
            "type": "error"
        },
        {
            "inputs": [
                {
                    "internalType": "address",
                    "name": "account",
                    "type": "address"
                }
            ],
            "name": "OwnableUnauthorizedAccount",
            "type": "error"
        },
        {
            "anonymous": false,
            "inputs": [
                {
                    "indexed": true,
                    "internalType": "address",
                    "name": "owner",
                    "type": "address"
                },
                {
                    "indexed": true,
                    "internalType": "address",
                    "name": "approved",
                    "type": "address"
                },
                {
                    "indexed": true,
                    "internalType": "uint256",
                    "name": "tokenId",
                    "type": "uint256"
                }
            ],
            "name": "Approval",
            "type": "event"
        },
        {
            "anonymous": false,
            "inputs": [
                {
                    "indexed": true,
                    "internalType": "address",
                    "name": "owner",
                    "type": "address"
                },
                {
                    "indexed": true,
                    "internalType": "address",
                    "name": "operator",
                    "type": "address"
                },
                {
                    "indexed": false,
                    "internalType": "bool",
                    "name": "approved",
                    "type": "bool"
                }
            ],
            "name": "ApprovalForAll",
            "type": "event"
        },
        {
            "anonymous": false,
            "inputs": [
                {
                    "indexed": true,
                    "internalType": "address",
                    "name": "user",
                    "type": "address"
                },
                {
                    "indexed": true,
                    "internalType": "uint256",
                    "name": "tokenId",
                    "type": "uint256"
                },
                {
                    "indexed": false,
                    "internalType": "bytes32",
                    "name": "identitiesRoot",
                    "type": "bytes32"
                }
            ],
            "name": "CarvIdMinted",
            "type": "event"
        },
        {
            "anonymous": false,
            "inputs": [
                {
                    "indexed": true,
                    "internalType": "address",
                    "name": "previousOwner",
                    "type": "address"
                },
                {
                    "indexed": true,
                    "internalType": "address",
                    "name": "newOwner",
                    "type": "address"
                }
            ],
            "name": "OwnershipTransferred",
            "type": "event"
        },
        {
            "anonymous": false,
            "inputs": [
                {
                    "indexed": true,
                    "internalType": "address",
                    "name": "from",
                    "type": "address"
                },
                {
                    "indexed": true,
                    "internalType": "address",
                    "name": "to",
                    "type": "address"
                },
                {
                    "indexed": true,
                    "internalType": "uint256",
                    "name": "tokenId",
                    "type": "uint256"
                }
            ],
            "name": "Transfer",
            "type": "event"
        },
        {
            "inputs": [
                {
                    "internalType": "address",
                    "name": "to",
                    "type": "address"
                },
                {
                    "internalType": "uint256",
                    "name": "tokenId",
                    "type": "uint256"
                }
            ],
            "name": "approve",
            "outputs": [],
            "stateMutability": "nonpayable",
            "type": "function"
        },
        {
            "inputs": [
                {
                    "internalType": "address",
                    "name": "owner",
                    "type": "address"
                }
            ],
            "name": "balanceOf",
            "outputs": [
                {
                    "internalType": "uint256",
                    "name": "",
                    "type": "uint256"
                }
            ],
            "stateMutability": "view",
            "type": "function"
        },
        {
            "inputs": [
                {
                    "internalType": "uint256",
                    "name": "tokenId",
                    "type": "uint256"
                }
            ],
            "name": "getApproved",
            "outputs": [
                {
                    "internalType": "address",
                    "name": "",
                    "type": "address"
                }
            ],
            "stateMutability": "view",
            "type": "function"
        },
        {
            "inputs": [
                {
                    "internalType": "uint256",
                    "name": "tokenId",
                    "type": "uint256"
                }
            ],
            "name": "getIdentitiesRoot",
            "outputs": [
                {
                    "internalType": "bytes32",
                    "name": "",
                    "type": "bytes32"
                }
            ],
            "stateMutability": "view",
            "type": "function"
        },
        {
            "inputs": [
                {
                    "internalType": "address",
                    "name": "owner",
                    "type": "address"
                },
                {
                    "internalType": "address",
                    "name": "operator",
                    "type": "address"
                }
            ],
            "name": "isApprovedForAll",
            "outputs": [
                {
                    "internalType": "bool",
                    "name": "",
                    "type": "bool"
                }
            ],
            "stateMutability": "view",
            "type": "function"
        },
        {
            "inputs": [
                {
                    "internalType": "bytes32",
                    "name": "identitiesRoot",
                    "type": "bytes32"
                }
            ],
            "name": "mintCarvId",
            "outputs": [],
            "stateMutability": "nonpayable",
            "type": "function"
        },
        {
            "inputs": [],
            "name": "name",
            "outputs": [
                {
                    "internalType": "string",
                    "name": "",
                    "type": "string"
                }
            ],
            "stateMutability": "view",
            "type": "function"
        },
        {
            "inputs": [],
            "name": "owner",
            "outputs": [
                {
                    "internalType": "address",
                    "name": "",
                    "type": "address"
                }
            ],
            "stateMutability": "view",
            "type": "function"
        },
        {
            "inputs": [
                {
                    "internalType": "uint256",
                    "name": "tokenId",
                    "type": "uint256"
                }
            ],
            "name": "ownerOf",
            "outputs": [
                {
                    "internalType": "address",
                    "name": "",
                    "type": "address"
                }
            ],
            "stateMutability": "view",
            "type": "function"
        },
        {
            "inputs": [],
            "name": "renounceOwnership",
            "outputs": [],
            "stateMutability": "nonpayable",
            "type": "function"
        },
        {
            "inputs": [
                {
                    "internalType": "address",
                    "name": "from",
                    "type": "address"
                },
                {
                    "internalType": "address",
                    "name": "to",
                    "type": "address"
                },
                {
                    "internalType": "uint256",
                    "name": "tokenId",
                    "type": "uint256"
                }
            ],
            "name": "safeTransferFrom",
            "outputs": [],
            "stateMutability": "nonpayable",
            "type": "function"
        },
        {
            "inputs": [
                {
                    "internalType": "address",
                    "name": "from",
                    "type": "address"
                },
                {
                    "internalType": "address",
                    "name": "to",
                    "type": "address"
                },
                {
                    "internalType": "uint256",
                    "name": "tokenId",
                    "type": "uint256"
                },
                {
                    "internalType": "bytes",
                    "name": "data",
                    "type": "bytes"
                }
            ],
            "name": "safeTransferFrom",
            "outputs": [],
            "stateMutability": "nonpayable",
            "type": "function"
        },
        {
            "inputs": [
                {
                    "internalType": "address",
                    "name": "operator",
                    "type": "address"
                },
                {
                    "internalType": "bool",
                    "name": "approved",
                    "type": "bool"
                }
            ],
            "name": "setApprovalForAll",
            "outputs": [],
            "stateMutability": "nonpayable",
            "type": "function"
        },
        {
            "inputs": [
                {
                    "internalType": "uint256",
                    "name": "tokenId",
                    "type": "uint256"
                },
                {
                    "internalType": "bytes32",
                    "name": "newRoot",
                    "type": "bytes32"
                }
            ],
            "name": "setIdentitiesRoot",
            "outputs": [],
            "stateMutability": "nonpayable",
            "type": "function"
        },
        {
            "inputs": [
                {
                    "internalType": "bytes4",
                    "name": "interfaceId",
                    "type": "bytes4"
                }
            ],
            "name": "supportsInterface",
            "outputs": [
                {
                    "internalType": "bool",
                    "name": "",
                    "type": "bool"
                }
            ],
            "stateMutability": "view",
            "type": "function"
        },
        {
            "inputs": [],
            "name": "symbol",
            "outputs": [
                {
                    "internalType": "string",
                    "name": "",
                    "type": "string"
                }
            ],
            "stateMutability": "view",
            "type": "function"
        },
        {
            "inputs": [
                {
                    "internalType": "uint256",
                    "name": "tokenId",
                    "type": "uint256"
                }
            ],
            "name": "tokenURI",
            "outputs": [
                {
                    "internalType": "string",
                    "name": "",
                    "type": "string"
                }
            ],
            "stateMutability": "view",
            "type": "function"
        },
        {
            "inputs": [
                {
                    "internalType": "address",
                    "name": "from",
                    "type": "address"
                },
                {
                    "internalType": "address",
                    "name": "to",
                    "type": "address"
                },
                {
                    "internalType": "uint256",
                    "name": "tokenId",
                    "type": "uint256"
                }
            ],
            "name": "transferFrom",
            "outputs": [],
            "stateMutability": "nonpayable",
            "type": "function"
        },
        {
            "inputs": [
                {
                    "internalType": "address",
                    "name": "newOwner",
                    "type": "address"
                }
            ],
            "name": "transferOwnership",
            "outputs": [],
            "stateMutability": "nonpayable",
            "type": "function"
        },
        {
            "inputs": [
                {
                    "internalType": "address",
                    "name": "",
                    "type": "address"
                }
            ],
            "name": "walletToTokenId",
            "outputs": [
                {
                    "internalType": "uint256",
                    "name": "",
                    "type": "uint256"
                }
            ],
            "stateMutability": "view",
            "type": "function"
        }
    ],
    "bytecode": "0x608060405234801561001057600080fd5b50336040518060400160405280600f81526020017f4d6f64756c6172204341525620494400000000000000000000000000000000008152506040518060400160405280600681526020017f4341525649440000000000000000000000000000000000000000000000000000815250816000908161008d919061043d565b50806001908161009d919061043d565b505050600073ffffffffffffffffffffffffffffffffffffffff168173ffffffffffffffffffffffffffffffffffffffff16036101125760006040517f1e4fbdf70000000000000000000000000000000000000000000000000000000081526004016101099190610550565b60405180910390fd5b6101218161012760201b60201c565b5061056b565b6000600660009054906101000a900473ffffffffffffffffffffffffffffffffffffffff16905081600660006101000a81548173ffffffffffffffffffffffffffffffffffffffff021916908373ffffffffffffffffffffffffffffffffffffffff1602179055508173ffffffffffffffffffffffffffffffffffffffff168173ffffffffffffffffffffffffffffffffffffffff167f8be0079c531659141344cd1fd0a4f28419497f9722a3daafe3b4186f6b6457e060405160405180910390a35050565b600081519050919050565b7f4e487b7100000000000000000000000000000000000000000000000000000000600052604160045260246000fd5b7f4e487b7100000000000000000000000000000000000000000000000000000000600052602260045260246000fd5b6000600282049050600182168061026e57607f821691505b60208210810361028157610280610227565b5b50919050565b60008190508160005260206000209050919050565b60006020601f8301049050919050565b600082821b905092915050565b6000600883026102e97fffffffffffffffffffffffffffffffffffffffffffffffffffffffffffffffff826102ac565b6102f386836102ac565b95508019841693508086168417925050509392505050565b6000819050919050565b6000819050919050565b600061033a6103356103308461030b565b610315565b61030b565b9050919050565b6000819050919050565b6103548361031f565b61036861036082610341565b8484546102b9565b825550505050565b600090565b61037d610370565b61038881848461034b565b505050565b5b818110156103ac576103a1600082610375565b60018101905061038e565b5050565b601f8211156103f1576103c281610287565b6103cb8461029c565b810160208510156103da578190505b6103ee6103e68561029c565b83018261038d565b50505b505050565b600082821c905092915050565b6000610414600019846008026103f6565b1980831691505092915050565b600061042d8383610403565b9150826002028217905092915050565b610446826101ed565b67ffffffffffffffff81111561045f5761045e6101f8565b5b6104698254610256565b6104748282856103b0565b600060209050601f8311600181146104a75760008415610495578287015190505b61049f8582610421565b865550610507565b601f1984166104b586610287565b60005b828110156104dd578489015182556001820191506020850194506020810190506104b8565b868310156104fa57848901516104f6601f891682610403565b8355505b6001600288020188555050505b505050505050565b600073ffffffffffffffffffffffffffffffffffffffff82169050919050565b600061053a8261050f565b9050919050565b61054a8161052f565b82525050565b60006020820190506105656000830184610541565b92915050565b61256f8061057a6000396000f3fe608060405234801561001057600080fd5b506004361061012c5760003560e01c8063715018a6116100ad578063b88d4fde11610071578063b88d4fde14610341578063c87b56dd1461035d578063e985e9c51461038d578063f2fde38b146103bd578063ff30a118146103d95761012c565b8063715018a6146102af5780638da5cb5b146102b957806395d89b41146102d75780639c2806c7146102f5578063a22cb465146103255761012c565b806342842e0e116100f457806342842e0e146101e757806345692b82146102035780636352211e146102335780636850b87f1461026357806370a082311461027f5761012c565b806301ffc9a71461013157806306fdde0314610161578063081812fc1461017f578063095ea7b3146101af57806323b872dd146101cb575b600080fd5b61014b60048036038101906101469190611b7f565b6103f5565b6040516101589190611bc7565b60405180910390f35b6101696104d7565b6040516101769190611c72565b60405180910390f35b61019960048036038101906101949190611cca565b610569565b6040516101a69190611d38565b60405180910390f35b6101c960048036038101906101c49190611d7f565b610585565b005b6101e560048036038101906101e09190611dbf565b61059b565b005b61020160048036038101906101fc9190611dbf565b61069d565b005b61021d60048036038101906102189190611cca565b6106bd565b60405161022a9190611e2b565b60405180910390f35b61024d60048036038101906102489190611cca565b6106da565b60405161025a9190611d38565b60405180910390f35b61027d60048036038101906102789190611e72565b6106ec565b005b61029960048036038101906102949190611e9f565b610857565b6040516102a69190611edb565b60405180910390f35b6102b7610911565b005b6102c1610925565b6040516102ce9190611d38565b60405180910390f35b6102df61094f565b6040516102ec9190611c72565b60405180910390f35b61030f600480360381019061030a9190611e9f565b6109e1565b60405161031c9190611edb565b60405180910390f35b61033f600480360381019061033a9190611f22565b6109f9565b005b61035b60048036038101906103569190612097565b610a0f565b005b61037760048036038101906103729190611cca565b610a34565b6040516103849190611c72565b60405180910390f35b6103a760048036038101906103a2919061211a565b610a9d565b6040516103b49190611bc7565b60405180910390f35b6103d760048036038101906103d29190611e9f565b610b31565b005b6103f360048036038101906103ee919061215a565b610bb7565b005b60007f80ac58cd000000000000000000000000000000000000000000000000000000007bffffffffffffffffffffffffffffffffffffffffffffffffffffffff1916827bffffffffffffffffffffffffffffffffffffffffffffffffffffffff191614806104c057507f5b5e139f000000000000000000000000000000000000000000000000000000007bffffffffffffffffffffffffffffffffffffffffffffffffffffffff1916827bffffffffffffffffffffffffffffffffffffffffffffffffffffffff1916145b806104d057506104cf82610c49565b5b9050919050565b6060600080546104e6906121c9565b80601f0160208091040260200160405190810160405280929190818152602001828054610512906121c9565b801561055f5780601f106105345761010080835404028352916020019161055f565b820191906000526020600020905b81548152906001019060200180831161054257829003601f168201915b5050505050905090565b600061057482610cb3565b5061057e82610d3b565b9050919050565b6105978282610592610d78565b610d80565b5050565b600073ffffffffffffffffffffffffffffffffffffffff168273ffffffffffffffffffffffffffffffffffffffff160361060d5760006040517f64a0ae920000000000000000000000000000000000000000000000000000000081526004016106049190611d38565b60405180910390fd5b6000610621838361061c610d78565b610d92565b90508373ffffffffffffffffffffffffffffffffffffffff168173ffffffffffffffffffffffffffffffffffffffff1614610697578382826040517f64283d7b00000000000000000000000000000000000000000000000000000000815260040161068e939291906121fa565b60405180910390fd5b50505050565b6106b883838360405180602001604052806000815250610a0f565b505050565b600060076000838152602001908152602001600020549050919050565b60006106e582610cb3565b9050919050565b6000600860003373ffffffffffffffffffffffffffffffffffffffff1673ffffffffffffffffffffffffffffffffffffffff168152602001908152602001600020541461076e576040517f08c379a00000000000000000000000000000000000000000000000000000000081526004016107659061227d565b60405180910390fd5b60003342604051602001610783929190612306565b6040516020818303038152906040528051906020012060001c90506107a83382610fac565b81600760008381526020019081526020016000208190555080600860003373ffffffffffffffffffffffffffffffffffffffff1673ffffffffffffffffffffffffffffffffffffffff16815260200190815260200160002081905550803373ffffffffffffffffffffffffffffffffffffffff167fb0b8ba1216ccc98284cdeb74c9f6cda0109a084172584a20554e1acd2efe1b3d8460405161084b9190611e2b565b60405180910390a35050565b60008073ffffffffffffffffffffffffffffffffffffffff168273ffffffffffffffffffffffffffffffffffffffff16036108ca5760006040517f89c62b640000000000000000000000000000000000000000000000000000000081526004016108c19190611d38565b60405180910390fd5b600360008373ffffffffffffffffffffffffffffffffffffffff1673ffffffffffffffffffffffffffffffffffffffff168152602001908152602001600020549050919050565b610919610fca565b6109236000611051565b565b6000600660009054906101000a900473ffffffffffffffffffffffffffffffffffffffff16905090565b60606001805461095e906121c9565b80601f016020809104026020016040519081016040528092919081815260200182805461098a906121c9565b80156109d75780601f106109ac576101008083540402835291602001916109d7565b820191906000526020600020905b8154815290600101906020018083116109ba57829003601f168201915b5050505050905090565b60086020528060005260406000206000915090505481565b610a0b610a04610d78565b8383611117565b5050565b610a1a84848461059b565b610a2e610a25610d78565b85858585611286565b50505050565b6060610a3f82610cb3565b506000610a4a611437565b90506000815111610a6a5760405180602001604052806000815250610a95565b80610a748461144e565b604051602001610a8592919061236e565b6040516020818303038152906040525b915050919050565b6000600560008473ffffffffffffffffffffffffffffffffffffffff1673ffffffffffffffffffffffffffffffffffffffff16815260200190815260200160002060008373ffffffffffffffffffffffffffffffffffffffff1673ffffffffffffffffffffffffffffffffffffffff16815260200190815260200160002060009054906101000a900460ff16905092915050565b610b39610fca565b600073ffffffffffffffffffffffffffffffffffffffff168173ffffffffffffffffffffffffffffffffffffffff1603610bab5760006040517f1e4fbdf7000000000000000000000000000000000000000000000000000000008152600401610ba29190611d38565b60405180910390fd5b610bb481611051565b50565b3373ffffffffffffffffffffffffffffffffffffffff16610bd7836106da565b73ffffffffffffffffffffffffffffffffffffffff1614610c2d576040517f08c379a0000000000000000000000000000000000000000000000000000000008152600401610c24906123de565b60405180910390fd5b8060076000848152602001908152602001600020819055505050565b60007f01ffc9a7000000000000000000000000000000000000000000000000000000007bffffffffffffffffffffffffffffffffffffffffffffffffffffffff1916827bffffffffffffffffffffffffffffffffffffffffffffffffffffffff1916149050919050565b600080610cbf8361151c565b9050600073ffffffffffffffffffffffffffffffffffffffff168173ffffffffffffffffffffffffffffffffffffffff1603610d3257826040517f7e273289000000000000000000000000000000000000000000000000000000008152600401610d299190611edb565b60405180910390fd5b80915050919050565b60006004600083815260200190815260200160002060009054906101000a900473ffffffffffffffffffffffffffffffffffffffff169050919050565b600033905090565b610d8d8383836001611559565b505050565b600080610d9e8461151c565b9050600073ffffffffffffffffffffffffffffffffffffffff168373ffffffffffffffffffffffffffffffffffffffff1614610de057610ddf81848661171e565b5b600073ffffffffffffffffffffffffffffffffffffffff168173ffffffffffffffffffffffffffffffffffffffff1614610e7157610e22600085600080611559565b6001600360008373ffffffffffffffffffffffffffffffffffffffff1673ffffffffffffffffffffffffffffffffffffffff168152602001908152602001600020600082825403925050819055505b600073ffffffffffffffffffffffffffffffffffffffff168573ffffffffffffffffffffffffffffffffffffffff1614610ef4576001600360008773ffffffffffffffffffffffffffffffffffffffff1673ffffffffffffffffffffffffffffffffffffffff168152602001908152602001600020600082825401925050819055505b846002600086815260200190815260200160002060006101000a81548173ffffffffffffffffffffffffffffffffffffffff021916908373ffffffffffffffffffffffffffffffffffffffff160217905550838573ffffffffffffffffffffffffffffffffffffffff168273ffffffffffffffffffffffffffffffffffffffff167fddf252ad1be2c89b69c2b068fc378daa952ba7f163c4a11628f55a4df523b3ef60405160405180910390a4809150509392505050565b610fc68282604051806020016040528060008152506117e2565b5050565b610fd2610d78565b73ffffffffffffffffffffffffffffffffffffffff16610ff0610925565b73ffffffffffffffffffffffffffffffffffffffff161461104f57611013610d78565b6040517f118cdaa70000000000000000000000000000000000000000000000000000000081526004016110469190611d38565b60405180910390fd5b565b6000600660009054906101000a900473ffffffffffffffffffffffffffffffffffffffff16905081600660006101000a81548173ffffffffffffffffffffffffffffffffffffffff021916908373ffffffffffffffffffffffffffffffffffffffff1602179055508173ffffffffffffffffffffffffffffffffffffffff168173ffffffffffffffffffffffffffffffffffffffff167f8be0079c531659141344cd1fd0a4f28419497f9722a3daafe3b4186f6b6457e060405160405180910390a35050565b600073ffffffffffffffffffffffffffffffffffffffff168273ffffffffffffffffffffffffffffffffffffffff160361118857816040517f5b08ba1800000000000000000000000000000000000000000000000000000000815260040161117f9190611d38565b60405180910390fd5b80600560008573ffffffffffffffffffffffffffffffffffffffff1673ffffffffffffffffffffffffffffffffffffffff16815260200190815260200160002060008473ffffffffffffffffffffffffffffffffffffffff1673ffffffffffffffffffffffffffffffffffffffff16815260200190815260200160002060006101000a81548160ff0219169083151502179055508173ffffffffffffffffffffffffffffffffffffffff168373ffffffffffffffffffffffffffffffffffffffff167f17307eab39ab6107e8899845ad3d59bd9653f200f220920489ca2b5937696c31836040516112799190611bc7565b60405180910390a3505050565b60008373ffffffffffffffffffffffffffffffffffffffff163b1115611430578273ffffffffffffffffffffffffffffffffffffffff1663150b7a02868685856040518563ffffffff1660e01b81526004016112e59493929190612453565b6020604051808303816000875af192505050801561132157506040513d601f19601f8201168201806040525081019061131e91906124b4565b60015b6113a5573d8060008114611351576040519150601f19603f3d011682016040523d82523d6000602084013e611356565b606091505b50600081510361139d57836040517f64a0ae920000000000000000000000000000000000000000000000000000000081526004016113949190611d38565b60405180910390fd5b805181602001fd5b63150b7a0260e01b7bffffffffffffffffffffffffffffffffffffffffffffffffffffffff1916817bffffffffffffffffffffffffffffffffffffffffffffffffffffffff19161461142e57836040517f64a0ae920000000000000000000000000000000000000000000000000000000081526004016114259190611d38565b60405180910390fd5b505b5050505050565b606060405180602001604052806000815250905090565b60606000600161145d84611806565b01905060008167ffffffffffffffff81111561147c5761147b611f6c565b5b6040519080825280601f01601f1916602001820160405280156114ae5781602001600182028036833780820191505090505b509050600082602001820190505b600115611511578080600190039150507f3031323334353637383961626364656600000000000000000000000000000000600a86061a8153600a8581611505576115046124e1565b5b049450600085036114bc575b819350505050919050565b60006002600083815260200190815260200160002060009054906101000a900473ffffffffffffffffffffffffffffffffffffffff169050919050565b80806115925750600073ffffffffffffffffffffffffffffffffffffffff168273ffffffffffffffffffffffffffffffffffffffff1614155b156116c65760006115a284610cb3565b9050600073ffffffffffffffffffffffffffffffffffffffff168373ffffffffffffffffffffffffffffffffffffffff161415801561160d57508273ffffffffffffffffffffffffffffffffffffffff168173ffffffffffffffffffffffffffffffffffffffff1614155b8015611620575061161e8184610a9d565b155b1561166257826040517fa9fbf51f0000000000000000000000000000000000000000000000000000000081526004016116599190611d38565b60405180910390fd5b81156116c457838573ffffffffffffffffffffffffffffffffffffffff168273ffffffffffffffffffffffffffffffffffffffff167f8c5be1e5ebec7d5bd14f71427d1e84f3dd0314c0f7b2291e5b200ac8c7c3b92560405160405180910390a45b505b836004600085815260200190815260200160002060006101000a81548173ffffffffffffffffffffffffffffffffffffffff021916908373ffffffffffffffffffffffffffffffffffffffff16021790555050505050565b611729838383611959565b6117dd57600073ffffffffffffffffffffffffffffffffffffffff168373ffffffffffffffffffffffffffffffffffffffff160361179e57806040517f7e2732890000000000000000000000000000000000000000000000000000000081526004016117959190611edb565b60405180910390fd5b81816040517f177e802f0000000000000000000000000000000000000000000000000000000081526004016117d4929190612510565b60405180910390fd5b505050565b6117ec8383611a1a565b6118016117f7610d78565b6000858585611286565b505050565b600080600090507a184f03e93ff9f4daa797ed6e38ed64bf6a1f0100000000000000008310611864577a184f03e93ff9f4daa797ed6e38ed64bf6a1f010000000000000000838161185a576118596124e1565b5b0492506040810190505b6d04ee2d6d415b85acef810000000083106118a1576d04ee2d6d415b85acef81000000008381611897576118966124e1565b5b0492506020810190505b662386f26fc1000083106118d057662386f26fc1000083816118c6576118c56124e1565b5b0492506010810190505b6305f5e10083106118f9576305f5e10083816118ef576118ee6124e1565b5b0492506008810190505b612710831061191e576127108381611914576119136124e1565b5b0492506004810190505b606483106119415760648381611937576119366124e1565b5b0492506002810190505b600a8310611950576001810190505b80915050919050565b60008073ffffffffffffffffffffffffffffffffffffffff168373ffffffffffffffffffffffffffffffffffffffff1614158015611a1157508273ffffffffffffffffffffffffffffffffffffffff168473ffffffffffffffffffffffffffffffffffffffff1614806119d257506119d18484610a9d565b5b80611a1057508273ffffffffffffffffffffffffffffffffffffffff166119f883610d3b565b73ffffffffffffffffffffffffffffffffffffffff16145b5b90509392505050565b600073ffffffffffffffffffffffffffffffffffffffff168273ffffffffffffffffffffffffffffffffffffffff1603611a8c5760006040517f64a0ae92000000000000000000000000000000000000000000000000000000008152600401611a839190611d38565b60405180910390fd5b6000611a9a83836000610d92565b9050600073ffffffffffffffffffffffffffffffffffffffff168173ffffffffffffffffffffffffffffffffffffffff1614611b0e5760006040517f73c6ac6e000000000000000000000000000000000000000000000000000000008152600401611b059190611d38565b60405180910390fd5b505050565b6000604051905090565b600080fd5b600080fd5b60007fffffffff0000000000000000000000000000000000000000000000000000000082169050919050565b611b5c81611b27565b8114611b6757600080fd5b50565b600081359050611b7981611b53565b92915050565b600060208284031215611b9557611b94611b1d565b5b6000611ba384828501611b6a565b91505092915050565b60008115159050919050565b611bc181611bac565b82525050565b6000602082019050611bdc6000830184611bb8565b92915050565b600081519050919050565b600082825260208201905092915050565b60005b83811015611c1c578082015181840152602081019050611c01565b60008484015250505050565b6000601f19601f8301169050919050565b6000611c4482611be2565b611c4e8185611bed565b9350611c5e818560208601611bfe565b611c6781611c28565b840191505092915050565b60006020820190508181036000830152611c8c8184611c39565b905092915050565b6000819050919050565b611ca781611c94565b8114611cb257600080fd5b50565b600081359050611cc481611c9e565b92915050565b600060208284031215611ce057611cdf611b1d565b5b6000611cee84828501611cb5565b91505092915050565b600073ffffffffffffffffffffffffffffffffffffffff82169050919050565b6000611d2282611cf7565b9050919050565b611d3281611d17565b82525050565b6000602082019050611d4d6000830184611d29565b92915050565b611d5c81611d17565b8114611d6757600080fd5b50565b600081359050611d7981611d53565b92915050565b60008060408385031215611d9657611d95611b1d565b5b6000611da485828601611d6a565b9250506020611db585828601611cb5565b9150509250929050565b600080600060608486031215611dd857611dd7611b1d565b5b6000611de686828701611d6a565b9350506020611df786828701611d6a565b9250506040611e0886828701611cb5565b9150509250925092565b6000819050919050565b611e2581611e12565b82525050565b6000602082019050611e406000830184611e1c565b92915050565b611e4f81611e12565b8114611e5a57600080fd5b50565b600081359050611e6c81611e46565b92915050565b600060208284031215611e8857611e87611b1d565b5b6000611e9684828501611e5d565b91505092915050565b600060208284031215611eb557611eb4611b1d565b5b6000611ec384828501611d6a565b91505092915050565b611ed581611c94565b82525050565b6000602082019050611ef06000830184611ecc565b92915050565b611eff81611bac565b8114611f0a57600080fd5b50565b600081359050611f1c81611ef6565b92915050565b60008060408385031215611f3957611f38611b1d565b5b6000611f4785828601611d6a565b9250506020611f5885828601611f0d565b9150509250929050565b600080fd5b600080fd5b7f4e487b7100000000000000000000000000000000000000000000000000000000600052604160045260246000fd5b611fa482611c28565b810181811067ffffffffffffffff82111715611fc357611fc2611f6c565b5b80604052505050565b6000611fd6611b13565b9050611fe28282611f9b565b919050565b600067ffffffffffffffff82111561200257612001611f6c565b5b61200b82611c28565b9050602081019050919050565b82818337600083830152505050565b600061203a61203584611fe7565b611fcc565b90508281526020810184848401111561205657612055611f67565b5b612061848285612018565b509392505050565b600082601f83011261207e5761207d611f62565b5b813561208e848260208601612027565b91505092915050565b600080600080608085870312156120b1576120b0611b1d565b5b60006120bf87828801611d6a565b94505060206120d087828801611d6a565b93505060406120e187828801611cb5565b925050606085013567ffffffffffffffff81111561210257612101611b22565b5b61210e87828801612069565b91505092959194509250565b6000806040838503121561213157612130611b1d565b5b600061213f85828601611d6a565b925050602061215085828601611d6a565b9150509250929050565b6000806040838503121561217157612170611b1d565b5b600061217f85828601611cb5565b925050602061219085828601611e5d565b9150509250929050565b7f4e487b7100000000000000000000000000000000000000000000000000000000600052602260045260246000fd5b600060028204905060018216806121e157607f821691505b6020821081036121f4576121f361219a565b5b50919050565b600060608201905061220f6000830186611d29565b61221c6020830185611ecc565b6122296040830184611d29565b949350505050565b7f416c7265616479206d696e746564000000000000000000000000000000000000600082015250565b6000612267600e83611bed565b915061227282612231565b602082019050919050565b600060208201905081810360008301526122968161225a565b9050919050565b60008160601b9050919050565b60006122b58261229d565b9050919050565b60006122c7826122aa565b9050919050565b6122df6122da82611d17565b6122bc565b82525050565b6000819050919050565b6123006122fb82611c94565b6122e5565b82525050565b600061231282856122ce565b60148201915061232282846122ef565b6020820191508190509392505050565b600081905092915050565b600061234882611be2565b6123528185612332565b9350612362818560208601611bfe565b80840191505092915050565b600061237a828561233d565b9150612386828461233d565b91508190509392505050565b7f4e6f7420746f6b656e206f776e65720000000000000000000000000000000000600082015250565b60006123c8600f83611bed565b91506123d382612392565b602082019050919050565b600060208201905081810360008301526123f7816123bb565b9050919050565b600081519050919050565b600082825260208201905092915050565b6000612425826123fe565b61242f8185612409565b935061243f818560208601611bfe565b61244881611c28565b840191505092915050565b60006080820190506124686000830187611d29565b6124756020830186611d29565b6124826040830185611ecc565b8181036060830152612494818461241a565b905095945050505050565b6000815190506124ae81611b53565b92915050565b6000602082840312156124ca576124c9611b1d565b5b60006124d88482850161249f565b91505092915050565b7f4e487b7100000000000000000000000000000000000000000000000000000000600052601260045260246000fd5b60006040820190506125256000830185611d29565b6125326020830184611ecc565b939250505056fea264697066735822122024e48ce9cd3fa1518dc2877008c63d7044a19d25d33339f439a8ff5fca9e290464736f6c634300081c0033",
    "linkReferences": {},
    "deployedLinkReferences": {}
}